{
  "_format": "hh-sol-artifact-1",
  "contractName": "AuditLogAnchor",
  "sourceName": "contracts/AuditLogAnchor.sol",
  "abi": [
    {
      "anonymous": false,
      "inputs": [
        {
          "indexed": false,
          "internalType": "string",
          "name": "auditLogId",
          "type": "string"
        },
        {
          "indexed": false,
          "internalType": "string",
          "name": "digest",
          "type": "string"
        },
        {
          "indexed": false,
          "internalType": "uint256",
          "name": "timestamp",
          "type": "uint256"
        }
      ],
      "name": "LogAnchored",
      "type": "event"
    },
    {
      "inputs": [
        {
          "internalType": "string",
          "name": "auditLogId",
          "type": "string"
        },
        {
          "internalType": "string",
          "name": "digest",
          "type": "string"
        }
      ],
      "name": "anchorLog",
      "outputs": [],
      "stateMutability": "nonpayable",
      "type": "function"
    }
  ],
  "bytecode": "0x608060405234801561001057600080fd5b50610277806100206000396000f3fe608060405234801561001057600080fd5b506004361061002b5760003560e01c806397eb3d7714610030575b600080fd5b61004a60048036038101906100459190610100565b61004c565b005b7f1e1731d12b2d232d94b2b905102d16b70875fcfbc6700e6ac11464bc98ee640584848484426040516100839594939291906101f8565b60405180910390a150505050565b600080fd5b600080fd5b600080fd5b600080fd5b600080fd5b60008083601f8401126100c0576100bf61009b565b5b8235905067ffffffffffffffff8111156100dd576100dc6100a0565b5b6020830191508360018202830111156100f9576100f86100a5565b5b9250929050565b6000806000806040858703121561011a57610119610091565b5b600085013567ffffffffffffffff81111561013857610137610096565b5b610144878288016100aa565b9450945050602085013567ffffffffffffffff81111561016757610166610096565b5b610173878288016100aa565b925092505092959194509250565b600082825260208201905092915050565b82818337600083830152505050565b6000601f19601f8301169050919050565b60006101be8385610181565b93506101cb838584610192565b6101d4836101a1565b840190509392505050565b6000819050919050565b6101f2816101df565b82525050565b600060608201905081810360008301526102138187896101b2565b905081810360208301526102288185876101b2565b905061023760408301846101e9565b969550505050505056fea2646970667358221220e223adb7fd01e4edd9c40999446395911c0d5e4eb04c557d8fffb902cb727fe164736f6c63430008140033",
  "linkReferences": {},
  "deployedLinkReferences": {}
}