{"contracts/AuditLogAnchor.sol":{"AuditLogAnchor":{"abi":[{"anonymous":false,"inputs":[{"indexed":false,"internalType":"string","name":"auditLogId","type":"string"},{"indexed":false,"internalType":"string","name":"digest","type":"string"},{"indexed":false,"internalType":"uint256","name":"timestamp","type":"uint256"}],"name":"LogAnchored","type":"event"},{"inputs":[{"internalType":"string","name":"auditLogId","type":"string"},{"internalType":"string","name":"digest","type":"string"}],"name":"anchorLog","outputs":[],"stateMutability":"nonpayable","type":"function"}],"evm":{"bytecode":{"linkReferences":{},"object":"608060405234801561001057600080fd5b50610277806100206000396000f3fe608060405234801561001057600080fd5b506004361061002b5760003560e01c806397eb3d7714610030575b600080fd5b61004a60048036038101906100459190610100565b61004c565b005b7f1e1731d12b2d232d94b2b905102d16b70875fcfbc6700e6ac11464bc98ee640584848484426040516100839594939291906101f8565b60405180910390a150505050565b600080fd5b600080fd5b600080fd5b600080fd5b600080fd5b60008083601f8401126100c0576100bf61009b565b5b8235905067ffffffffffffffff8111156100dd576100dc6100a0565b5b6020830191508360018202830111156100f9576100f86100a5565b5b9250929050565b6000806000806040858703121561011a57610119610091565b5b600085013567ffffffffffffffff81111561013857610137610096565b5b610144878288016100aa565b9450945050602085013567ffffffffffffffff81111561016757610166610096565b5b610173878288016100aa565b925092505092959194509250565b600082825260208201905092915050565b82818337600083830152505050565b6000601f19601f8301169050919050565b60006101be8385610181565b93506101cb838584610192565b6101d4836101a1565b840190509392505050565b6000819050919050565b6101f2816101df565b82525050565b600060608201905081810360008301526102138187896101b2565b905081810360208301526102288185876101b2565b905061023760408301846101e9565b969550505050505056fea2646970667358221220e223adb7fd01e4edd9c40999446395911c0d5e4eb04c557d8fffb902cb727fe164736f6c63430008140033","opcodes":"PUSH1 0x80 PUSH1 0x40 MSTORE CALLVALUE DUP1 ISZERO PUSH2 0x10 JUMPI PUSH1 0x0 DUP1 REVERT JUMPDEST POP PUSH2 0x277 DUP1 PUSH2 0x20 PUSH1 0x0 CODECOPY PUSH1 0x0 RETURN INVALID PUSH1 0x80 PUSH1 0x40 MSTORE CALLVALUE DUP1 ISZERO PUSH2 0x10 JUMPI PUSH1 0x0 DUP1 REVERT JUMPDEST POP PUSH1 0x4 CALLDATASIZE LT PUSH2 0x2B JUMPI PUSH1 0x0 CALLDATALOAD PUSH1 0xE0 SHR DUP1 PUSH4 0x97EB3D77 EQ PUSH2 0x30 JUMPI JUMPDEST PUSH1 0x0 DUP1 REVERT JUMPDEST PUSH2 0x4A PUSH1 0x4 DUP1 CALLDATASIZE SUB DUP2 ADD SWAP1 PUSH2 0x45 SWAP2 SWAP1 PUSH2 0x100 JUMP JUMPDEST PUSH2 0x4C JUMP JUMPDEST STOP JUMPDEST PUSH32 0x1E1731D12B2D232D94B2B905102D16B70875FCFBC6700E6AC11464BC98EE6405 DUP5 DUP5 DUP5 DUP5 TIMESTAMP PUSH1 0x40 MLOAD PUSH2 0x83 SWAP6 SWAP5 SWAP4 SWAP3 SWAP2 SWAP1 PUSH2 0x1F8 JUMP JUMPDEST PUSH1 0x40 MLOAD DUP1 SWAP2 SUB SWAP1 LOG1 POP POP POP POP JUMP JUMPDEST PUSH1 0x0 DUP1 REVERT JUMPDEST PUSH1 0x0 DUP1 REVERT JUMPDEST PUSH1 0x0 DUP1 REVERT JUMPDEST PUSH1 0x0 DUP1 REVERT JUMPDEST PUSH1 0x0 DUP1 REVERT JUMPDEST PUSH1 0x0 DUP1 DUP4 PUSH1 0x1F DUP5 ADD SLT PUSH2 0xC0 JUMPI PUSH2 0xBF PUSH2 0x9B JUMP JUMPDEST JUMPDEST DUP3 CALLDATALOAD SWAP1 POP PUSH8 0xFFFFFFFFFFFFFFFF DUP2 GT ISZERO PUSH2 0xDD JUMPI PUSH2 0xDC PUSH2 0xA0 JUMP JUMPDEST JUMPDEST PUSH1 0x20 DUP4 ADD SWAP2 POP DUP4 PUSH1 0x1 DUP3 MUL DUP4 ADD GT ISZERO PUSH2 0xF9 JUMPI PUSH2 0xF8 PUSH2 0xA5 JUMP JUMPDEST JUMPDEST SWAP3 POP SWAP3 SWAP1 POP JUMP JUMPDEST PUSH1 0x0 DUP1 PUSH1 0x0 DUP1 PUSH1 0x40 DUP6 DUP8 SUB SLT ISZERO PUSH2 0x11A JUMPI PUSH2 0x119 PUSH2 0x91 JUMP JUMPDEST JUMPDEST PUSH1 0x0 DUP6 ADD CALLDATALOAD PUSH8 0xFFFFFFFFFFFFFFFF DUP2 GT ISZERO PUSH2 0x138 JUMPI PUSH2 0x137 PUSH2 0x96 JUMP JUMPDEST JUMPDEST PUSH2 0x144 DUP8 DUP3 DUP9 ADD PUSH2 0xAA JUMP JUMPDEST SWAP5 POP SWAP5 POP POP PUSH1 0x20 DUP6 ADD CALLDATALOAD PUSH8 0xFFFFFFFFFFFFFFFF DUP2 GT ISZERO PUSH2 0x167 JUMPI PUSH2 0x166 PUSH2 0x96 JUMP JUMPDEST JUMPDEST PUSH2 0x173 DUP8 DUP3 DUP9 ADD PUSH2 0xAA JUMP JUMPDEST SWAP3 POP SWAP3 POP POP SWAP3 SWAP6 SWAP2 SWAP5 POP SWAP3 POP JUMP JUMPDEST PUSH1 0x0 DUP3 DUP3 MSTORE PUSH1 0x20 DUP3 ADD SWAP1 POP SWAP3 SWAP2 POP POP JUMP JUMPDEST DUP3 DUP2 DUP4 CALLDATACOPY PUSH1 0x0 DUP4 DUP4 ADD MSTORE POP POP POP JUMP JUMPDEST PUSH1 0x0 PUSH1 0x1F NOT PUSH1 0x1F DUP4 ADD AND SWAP1 POP SWAP2 SWAP1 POP JUMP JUMPDEST PUSH1 0x0 PUSH2 0x1BE DUP4 DUP6 PUSH2 0x181 JUMP JUMPDEST SWAP4 POP PUSH2 0x1CB DUP4 DUP6 DUP5 PUSH2 0x192 JUMP JUMPDEST PUSH2 0x1D4 DUP4 PUSH2 0x1A1 JUMP JUMPDEST DUP5 ADD SWAP1 POP SWAP4 SWAP3 POP POP POP JUMP JUMPDEST PUSH1 0x0 DUP2 SWAP1 POP SWAP2 SWAP1 POP JUMP JUMPDEST PUSH2 0x1F2 DUP2 PUSH2 0x1DF JUMP JUMPDEST DUP3 MSTORE POP POP JUMP JUMPDEST PUSH1 0x0 PUSH1 0x60 DUP3 ADD SWAP1 POP DUP2 DUP2 SUB PUSH1 0x0 DUP4 ADD MSTORE PUSH2 0x213 DUP2 DUP8 DUP10 PUSH2 0x1B2 JUMP JUMPDEST SWAP1 POP DUP2 DUP2 SUB PUSH1 0x20 DUP4 ADD MSTORE PUSH2 0x228 DUP2 DUP6 DUP8 PUSH2 0x1B2 JUMP JUMPDEST SWAP1 POP PUSH2 0x237 PUSH1 0x40 DUP4 ADD DUP5 PUSH2 0x1E9 JUMP JUMPDEST SWAP7 SWAP6 POP POP POP POP POP POP JUMP INVALID LOG2 PUSH5 0x6970667358 0x22 SLT KECCAK256 0xE2 0x23 0xAD 0xB7 REVERT ADD 0xE4 0xED 0xD9 0xC4 MULMOD SWAP10 PREVRANDAO PUSH4 0x95911C0D 0x5E 0x4E 0xB0 0x4C SSTORE PUSH30 0x8FFFB902CB727FE164736F6C634300081400330000000000000000000000 "},"methodIdentifiers":{"anchorLog(string,string)":"97eb3d77"}}}}}